S00D00004D43555F322E73726563A1
S11300000C942A000C9499010C9447000C9447001A
S11300100C9447000C9447000C9447000C94470040
S11300200C9447000C9447000C9447000C94470030
S11300300C9447000C9447000C9447000C94470020
S11300400C9447000C9447000C9447000C94470010
S11300500C94470011241FBECFE5D8E0DEBFCDBF0E
S113006010E0A0E6B0E0E2E6F6E002C005900D92F2
S1130070A836B107D9F720E0A8E6B0E001C01D9288
S1130080A836B207E1F70E94C7020C942F030C9420
S1130090000041E063E082E00E94B70041E064E0D8
S11300A082E00E94B70041E065E082E00E94B70070
S11300B041E066E082E00E94B70041E064E083E052
S11300C00E94B70041E065E083E00E94B700089514
S11300D0949A41E063E082E00E94280140E064E0F9
S11300E082E00E9428010895949840E063E082E051
S11300F00E94280140E064E082E00E942801089503
S113010041E063E082E00E94B70041E064E082E005
S11301100E94B70041E065E082E00E94B70041E040
S113012066E082E00E94B70041E064E083E00E9460
S1130130B70041E065E083E00E94B7000895959A16
S113014041E065E082E00E94280140E066E082E050
S11301500E9428010895959840E065E082E00E949D
S1130160280140E066E082E00E94280108954423CB
S113017019F04130C9F10895813091F028F08230AE
S1130180D9F0833029F108952AB381E090E002C0C8
S1130190880F991F6A95E2F7809582238ABB089598
S11301A027B381E090E002C0880F991F6A95E2F7B7
S11301B08095822387BB089524B381E090E002C038
S11301C0880F991F6A95E2F78095822384BB08956E
S11301D021B381E090E002C0880F991F6A95E2F78D
S11301E08095822381BB0895813089F028F0823084
S11301F0C9F0833011F108952AB381E090E002C080
S1130200880F991F6A95E2F7822B8ABB089527B35A
S113021081E090E002C0880F991F6A95E2F7822B73
S113022087BB089524B381E090E002C0880F991F32
S11302306A95E2F7822B84BB089521B381E090E0B4
S113024002C0880F991F6A95E2F7822B81BB08953B
S1130250442319F04130C9F10895813091F028F018
S11302608230D9F0833029F108952BB381E090E0F6
S113027002C0880F991F6A95E2F7809582238BBB91
S1130280089528B381E090E002C0880F991F6A9511
S1130290E2F78095822388BB089525B381E090E03E
S11302A002C0880F991F6A95E2F78095822385BB67
S11302B0089522B381E090E002C0880F991F6A95E7
S11302C0E2F78095822382BB0895813089F028F07B
S11302D08230C9F0833011F108952BB381E090E0AE
S11302E002C0880F991F6A95E2F7822B8BBB089591
S11302F028B381E090E002C0880F991F6A95E2F765
S1130300822B88BB089525B381E090E002C0880F5A
S1130310991F6A95E2F7822B85BB089522B381E089
S113032090E002C0880F991F6A95E2F7822B82BB86
S113033008951F920F920FB60F9211242F933F939B
S11303404F935F936F937F938F939F93AF93BF93D9
S1130350EF93FF930E94BF020E94C1010E942E03EB
S1130360FF91EF91BF91AF919F918F917F916F9189
S11303705F914F913F912F910F900FBE0F901F905F
S11303801895DB980895CF93C82F40E061E081E091
S11303900E94280140E062E081E00E94280140E0E0
S11303A063E081E00E9428018BB39C2F907F8F70C3
S11303B0892B8BBB41E063E081E00E9428018FE937
S11303C09FE00197F1F700C0000040E063E081E0A6
S11303D00E9428012BB330E1C39FC0011124922F46
S11303E09F70892B8BBB41E063E081E00E94280170
S11303F08FE99FE00197F1F700C0000040E063E05F
S113040081E00E9428018FE19EE40197F1F700C08A
S11304100000CF91089541E061E081E00E94B700BF
S113042041E062E081E00E94B70041E063E081E0E6
S11304300E94B70041E064E080E00E94B70041E020
S113044065E080E00E94B70041E066E080E00E9441
S1130450B70041E067E080E00E94B7002FEF81EE33
S113046094E0215080409040E1F700C0000082E019
S11304700E94C30183E30E94C30182E30E94C3017B
S113048088E20E94C3018CE00E94C30181E00E94C3
S1130490C30186E00E94C3010895CF93C82F41E0B1
S11304A061E081E00E94280140E062E081E00E9476
S11304B0280140E063E081E00E9428018BB39C2F77
S11304C0907F8F70892B8BBB41E063E081E00E94B9
S11304D028018FE99FE00197F1F700C0000040E098
S11304E063E081E00E9428012BB330E1C39FC00187
S11304F01124922F9F70892B8BBB41E063E081E034
S11305000E9428018FE99FE00197F1F700C00000E5
S113051040E063E081E00E9428018FE19EE40197BE
S1130520F1F700C00000CF91089581E00E94C3015B
S11305300895CF93DF93EC018881882361F08FE9DC
S11305409FE00197F1F700C0000089910E944D02DD
S113055088818111F4CFDF91CF910895823050F4D6
S1130560603140F490E4899F600D1124862F8068E7
S11305700E94C3010895A29A0895AA9A0895AA9878
S11305800895A79A0895AF9A0895AF9808950E9480
S1130590BB020E94C1020E940B020E94950280E6E7
S11305A090E00E9499022FEF87EA91E62150804063
S11305B09040E1F700C000000E9495020E944900AB
S11305C00E9480000E9424030E942703C82F8FE307
S11305D09CE90197F1F700C0000061E081E00E940E
S11305E0AE028C2F0E944D029FEF21EE84E09150C9
S11305F020408040E1F700C00000C13329F40E948C
S113060068000E94C302E0CFC03329F40E94740042
S11306100E94C502D9CFC23329F40E949F000E94D0
S1130620BD02D2CFC33329F40E94AB000E94BF02A3
S1130630CBCFC43349F60E9474000E94AB000E94E1
S1130640BF020E94C502C0CFBE9A6E9A08958EB1B1
S11306508F778EB98111FBCF8FB108950895F894E7
S1050660FFCFC6
S10B066248656C6C6F21000077
S9030000FC
