S00D00004D43555F312E73726563A2
S11300000C942A000C94BA000C9447000C944700FA
S11300100C9447000C9447000C9447000C94470040
S11300200C9447000C9447000C9447000C94470030
S11300300C9447000C9447000C9447000C94470020
S11300400C9447000C9447000C9447000C94470010
S11300500C94470011241FBECFE5D8E0DEBFCDBF0E
S113006010E0A0E6B0E0EEE5F2E002C005900D92EB
S1130070A036B107D9F720E0A0E6B0E001C01D9298
S1130080A036B207E1F70E94E6000C942D010C940F
S11300900000442319F04130C9F10895813091F0F2
S11300A028F08230D9F0833029F108952AB381E011
S11300B090E002C0880F991F6A95E2F78095822329
S11300C08ABB089527B381E090E002C0880F991F8E
S11300D06A95E2F78095822387BB089524B381E073
S11300E090E002C0880F991F6A95E2F780958223F9
S11300F084BB089521B381E090E002C0880F991F6A
S11301006A95E2F78095822381BB0895813089F056
S113011028F08230C9F0833011F108952AB381E0C8
S113012090E002C0880F991F6A95E2F7822B8ABB80
S1130130089527B381E090E002C0880F991F6A9563
S1130140E2F7822B87BB089524B381E090E002C0DC
S1130150880F991F6A95E2F7822B84BB089521B317
S113016081E090E002C0880F991F6A95E2F7822B24
S113017081BB08951F920F920FB60F9211242F93F3
S11301803F934F935F936F937F938F939F93AF931B
S1130190BF93EF93FF930E94E4000E94E2000E9449
S11301A00301FF91EF91BF91AF919F918F917F9147
S11301B06F915F914F913F912F910F900FBE0F90D0
S11301C01F901895DB980895AA9808950E94040139
S11301D00E94F5000E9429010E94FC008FE39CE923
S11301E00197F1F700C00000F5CF87B3806B87BBA0
S11301F08DB180658DB908958FB98EB18F778EB921
S11302008111FBCF0895089583E389B910BC539AF3
S1130210549A80B5806880BD80B5826080BD80B509
S1130220846080BD529880B58F7E80BD80B58F7DFF
S113023080BD80B58F7B80BD40E060E083E00E949C
S1130240490041E061E083E00E9449008898899A6E
S111025008955F9BFECF8CB10895F894FFCF04
S9030000FC
